:20100000000200204B220000512200005322000055220000552200005522000000000000F4
:201020000000000000000000000000005522000055220000000000005522000055220000D4
:20104000552200007F1F0000552200005522000055220000552200005522000055220000B1
:201060005522000055220000552200005522000055220000552200005522000055220000B8
:20108000552200005522000055220000552200005522000055220000552200005522000098
:2010A000552200005522000055220000552200005522000055220000552200005522000078
:2010C000552200005522000055220000552200005522000055220000552200005522000058
:2010E000552200000000000000000000552200005522000055220000552200005522000026
:20110000552200005522000055220000552200000000000000000000552200005522000005
:201120005522000055220000552200005522000055220000552200005522000055220000F7
:201140000000000000000000000000000000000055220000552200005522000055220000B3
:2011600000000000000000000000000000000000000000000000000000000000000000006F
:2011800000000000000000000000000000000000000000000000000000000000000000004F
:2011A000000000000000000000000000000000005522000055220000552200005522000053
:2011C000552200005522000055220000552200005522000055220000552200005522000057
:2011E000552200005522000055220000000000000000000055220000552200005522000025
:20120000552200005522000000000000000000005522000055220000552200005522000004
:201220005522000055220000552200005522000055220000552200005522000055220000F6
:201240005522000055220000552200005522000055220000552200005522000055220000D6
:0C1260005522000055220000552200001D
:20126C00ADF1080D009041E0C349086840F001000860C249086820F00100086049E0BE49C5
:20128C00086840F002000860BC49086820F0020008603EE0B849086840F004000860B7491E
:2012AC00086820F00400086033E0B349086840F008000860B149086820F00800086028E025
:2012CC00AD49086840F010000860AC49086820F0100008601DE0A849086840F020000860F1
:2012EC00A649086820F02000086012E00098BF49401AB9D0B0F50030C1D0B0F50030C9D0A2
:20130C00B0F50030D1D0B0F56810D9D0B0F50030E1D000BF00BF00BF02B07047ADF1080DA6
:20132C00009023E09449086820F00100086030E09149086820F0020008602AE08E49086823
:20134C0020F00400086024E08B49086820F0080008601EE08849086820F01000086018E07E
:20136C008549086820F02000086012E000989F49401AD7D0B0F50030DAD0B0F50030DDD017
:20138C00B0F50030E0D0B0F56810E3D0B0F50030E6D000BF00BF00BF02B07047ADF1100D00
:2013AC008DF8081000909DF80810009800EB810000F5085001900198002101609DF808109D
:2013CC00009800EB8100803001900198012101609DF80810009800EB810000F51050019009
:2013EC0001980121016004B07047ADF1100D8DF8081000909DF80810009800EB810000F5CC
:20140C00085001900198012101609DF80810009800EB8100803001900198012101609DF818
:20142C000810009800EB810000F51050019001980121016004B07047ADF1100D8DF80810BF
:20144C0000909DF80810009800EB8100803001900198002101609DF80810009800EB810032
:20146C0000F5105001900198012101609DF80810009800EB810000F5165001900198002107
:20148C00016004B07047ADF1100D8DF8081000909DF80810009800EB810000F510500190F5
:2014AC000198002101609DF80810009800EB810000F5165001900198012101609DF808109F
:2014CC00009800EB810000F59060019001980121016004B07047ADF1100D8DF80810009017
:2014EC0017E0BF48BD49086026E0BD48BD49086022E0BB48BC4908601EE0B948BB4908601E
:20150C001AE0B748BA49086016E0B548B949086012E000983549401AE3D0B0F50030E4D060
:20152C00B0F50030E5D0B0F50030E6D0B0F56810E7D0B0F50030E8D09DF80810009800EBF9
:20154C00810000F51450019001980121016004B07047ADF1100D8DF8081000909DF80810F8
:20156C00009800EB810000F50A50019001980121016004B07047C04608E60F406CE00F4016
:20158C00ADF1100D8DF8081000909DF80810009800EB810000F50A500190019800210160AB
:2015AC0004B07047ADF1100D8DF8081000909DF80810009800EB810000F50C5001900198A0
:2015CC000121016004B07047ADF1100D8DF8081000909DF80810009800EB810000F50C5027
:2015EC00019001980021016004B07047807F08421FB501928DF80C10009001980F2806D839
:20160C009DF80C10019889008840019056E09DF80C2001990F2092009040084001904DE06A
:20162C00C9489DF80C400168019AC74BA4000F20A04081430A431A6053E0C4489DF80C4038
:20164C000168019AC14BA4000F20A04081430A431A6046E0BE489DF80C400168019ABC4B18
:20166C00A4000F20A04081430A431A6039E0B9489DF80C400168019AB64BA4000F20A0406D
:20168C0081430A431A602CE0B3489DF80C400168019AB14BA4000F20A04081430A431A608D
:2016AC001FE0AE489DF80C400168019AAB4BA4000F20A04081430A431A6012E00098C54978
:2016CC00401AADD0B0F50030B7D0B0F50030C1D0B0F50030CBD0B0F56810D5D0B0F500305E
:2016EC00DFD09DF80C10009800EB810000F5906002900198002100B10121029801600090EB
:20170C001FBDADF1100D8DF8081000909DF80810009800EB810000F5807001900198002118
:20172C0001609DF80810009800EB810000F5C07001900198002101609DF80810009800EB8A
:20174C00810000F50070019001980121016004B07047ADF1100D8DF8081000909DF80810EA
:20176C00009800EB810000F5807001900198002101609DF80810009800EB810000F5C070F2
:20178C0001900198002101609DF80810009800EB810000F50070019001980021016004B01B
:2017AC007047ADF1100D8DF8081000909DF80810009800EB810000F580700190019800219D
:2017CC0001609DF80810009800EB810000F5C070019001980121016004B070472045004009
:2017EC004B434F4C2055004020650040207500402045024020550240ADF1100D8DF80810AF
:20180C0000909DF80810009800EB810000F5807001900198012101609DF80810009800EBB9
:20182C00810000F50070019001980121016004B07047ADF1100D8DF8081000909DF8081009
:20184C00009800EB810000F5807001900198012101609DF80810009800EB810000F50070D0
:20186C00019001980021016004B07047ADF1100D8DF8081000909DF80810009800EB8100AC
:20188C0000F52070019001980121016004B07047ADF1100D8DF8081000909DF80810009872
:2018AC0000EB810000F52070019001980021016004B07047ADF1100D8DF8081000909DF897
:2018CC000810009800EB810000F58060019001980121016004B07047ADF1100D8DF809208A
:2018EC008DF8081000909DF80810009800EB810001909DF809000199086004B07047ADF1C4
:20190C00100D8DF8081000909DF80810009800EB810001900199086880F00100086004B098
:20192C007047ADF1100D8DF8081000909DF80810009800EB8100019001980168002001B1E6
:20194C00012004B07047C0462C4500402C5500402C6500402C7500402C4502402C5502404F
:20196C00ADF1080D8DF8041000901DE09DF80400364908602CE09DF804003549086027E070
:20198C009DF804003349086022E09DF80400324908601DE09DF804003049086018E09DF83C
:2019AC0004002F49086013E000980A49401ADDD0B0F50030DFD0B0F50030E1D0B0F5003073
:2019CC00E3D0B0F56810E5D0B0F50030E7D0FFE702B07047807F0842ADF1080D00901DE012
:2019EC001A4800688DF804002BE0194800688DF8040026E0174800688DF8040021E0164876
:201A0C0000688DF804001CE0144800688DF8040017E0134800688DF8040012E00098114959
:201A2C00401ADDD0B0F50030DFD0B0F50030E1D0B0F50030E3D0B0F56810E5D0B0F500305A
:201A4C00E7D09DF8040002B07047C046FC430040FC530040FC630040FC730040FC430240DE
:201A6C00FC530240807F084208B5E349086840F00100086000BF00BF00BFE048FFF7F0FB48
:201A8C00DE480221FFF78AFCDC4802214FF44072FFF7AEFDD9480321FFF7A7FCD748032177
:201AAC004FF44052FFF7A4FDD94900200860D94913200860D64910200860D74904200860E4
:201ACC0008BDADF1080D8DF801108DF80000D3499DF8000040000860D1499DF801000860F6
:201AEC00D04901200860CC4907200860CE4800684008FBD302B07047ADF1080D8DF800005F
:201B0C00C6499DF80000400040F001000860C54901200860C04907200860C3480068400852
:201B2C00FBD3BF480068C0B202B07047ADF1080D8DF802208DF801108DF80000B7499DF877
:201B4C00000040000860B6499DF801000860B54901200860B04903200860B348006840081E
:201B6C00FBD39DF80200AE490860AE4901200860A94905200860AC4800684008FBD302B072
:201B8C007047ADF1080D8DF8063000928DF805108DF80400A1499DF8040040000860A0494B
:201BAC009DF8050008609DF8060050B99D49012008609949072008609B4800684008FBD332
:201BCC003AE0984901200860934903200860964800684008FBD300208DF8070014E000987A
:201BEC009DF807108E4A085C10608E49012008608949012008608C4800684008FBD39DF8DF
:201C0C000700401C8DF807009DF806009DF80710401E8842E3DC9DF806000099804A401E3F
:201C2C00085C10607F49012008607B49052008607D4800684008FBD302B07047ADF1080DC3
:201C4C008DF801108DF8000074499DF800004000086073499DF80100086072490120086065
:201C6C006D4903200860704800684008FBD39DF800006A49400040F00100086069490120ED
:201C8C000860654907200860674800684008FBD363480068C0B202B07047ADF1080D8DF840
:201CAC00063000928DF805108DF8040000208DF807005A499DF804004000086058499DF867
:201CCC0005000860574901200860534903200860554800684008FBD39DF8060001281AD171
:201CEC009DF804004D49400040F0010008604D49012008604849072008604B48006840084E
:201D0C00FBD39DF80700464B0099421C8DF807201A6842544BE09DF80600012847DD9DF859
:201D2C0004003E49400040F0010008603D490120086039490B2008603B4800684008FBD30E
:201D4C009DF80700364B0099421C8DF807201A68425412E03349012008602F49092008609F
:201D6C00314800684008FBD39DF807002C4B0099421C8DF807201A6842549DF806009DF862
:201D8C000710401E8842E5DC264901200860224905200860244800684008FBD39DF80700C1
:201DAC001F4B0099421C8DF807201A68425402B07047ADF1080D8DF8000018499DF800005B
:201DCC00400040F001000860164901200860124907200860144800684008FBD30E480368B1
:201DEC000021002200209B0800D3012202B9012101B1012002B0704720E60F40807F0A4222
:201E0C00054801680020890800D301207047C046200002400C000240040002400000024066
:201E2C00080002401C0002401400024008B50020009020200921FFF701FF0090009800F0B3
:201E4C00F0000090009800B1F3E708BD08B500F0E7F94F48FFF704FA4D480321FFF79EFAAF
:201E6C004B480121FFF79AFA49480421FFF7E4FA47480421FFF76DFB4648FFF7F1F9454880
:201E8C000621FFF7D9FA08BD08B50A208DF80000FFF7DCFF00F03AF8202009210122FFF79F
:201EAC0045FEFFF7C3FF202009210222FFF73EFE9DF8000000280CDD20200921FFF7BEFE99
:201ECC009DF80000401E8DF800009DF800000028F2DC314800F092F92E480621FFF7EAFC86
:201EEC00112000F063F82B480621FFF7BFFC29480621FFF706FC202002211022FFF716FEE0
:201F0C00202009210122FFF711FEFEE708B5FFF7ABFD00F001F808BD38B500208DF80000A3
:201F2C009DF8000006281FD29DF800009DF800109DF80020194D1A4C1A4B00EB400001EBAA
:201F4C00410102EB4202285C615C9A5CFFF7EEFD154800F053F99DF80000401C8DF80000DB
:201F6C009DF800000628DFD320200921FFF766FE38BD08B520200921FFF760FE2020092142
:201F8C000222FFF7D3FD03480621FFF793FC08BD807F4A42807F0A4240420F000002002006
:201FAC000102002002020020A0860100ADF1080D8DF804002F4800909DF8040010388DF8FE
:201FCC0004009DF804100098491100EB810000909DF80400009A012100F01F0081401160C4
:201FEC0002B07047ADF1080D8DF80400224800909DF8040010388DF804009DF8041000988B
:20200C00491100EB810000909DF80400009A012100F01F008140116002B07047ADF1100DA4
:20202C008DF809108DF80800144800909DF8080010388DF808009DF8080000F00300C000BB
:20204C00401D01909DF808100098891000EB81000090009A019B11680720984081431160C9
:20206C0000999DF80900019B0A6898401043086004B0704700E100E080E100E000E400E04B
:20208C00002A4AD05FEA000C8B071CD1830722D1102A08D370B4103A78C978C0103AFBD28C
:2020AC0070BC103238D0042A2CD3082A05D30C2A24BF08C908C008C908C008C908C09207EA
:2020CC002AD0920F22E00B780370491C401C521E22D08B07F7D1C30714D18307D8D0121FD2
:2020EC0012D308C903801B0C4380001D121FF8D20AE008C903701B0A43701B0A83701B0A56
:20210C00C370001D121FF4D2121D05D00B780370491C401C521EF9D160467047F8B58446A3
:20212C0040F6FF741CF8013B002210E0481B401E10F8015B7F1E01F8015BF9D103E01CF8B0
:20214C00010B01F8010B521C5B08082AEADA5808F5D21CF8010B1CF8015B05F00F07FF1CBE
:20216C00C5F30315122F45EA001508D11CF8016B300A24BF1CF8010B60F3DF16BF19AC425A
:20218C00D4D1F8BDB0B50C480C4DA84210D00C480C4CA0420CD0001B083CC71054F8080FFA
:2021AC00017855F821206168401C90477F1EF5D100BF00BFB0BDC046802200007822000080
:2021CC0088220000802200000B4880F308880949086840F47000086000BF00BF00F035F8E8
:2021EC0008B1FFF7CFFF0020FFF74EFE012000F02EF8C04688ED00E000020020ADF1080D8D
:20220C0000904FF00601A1F1010111B100BF00BFF9E7A0F1010008B100BFF2E702B07047DC
:20222C00024801490860704760E00F4040054002D0F80320C31D08461946FFF721BFFFF785
:12224C00C3BF7047FEE7FEE7FEE70120704700BFFEE71C
:2022600000FF2005022000102001FF0020061020031020030410FFF0292100003D220000B0
:082280006022000000020020B2
:00000001FF
